:0300000002089162
:0C089100787FE4F6D8FD758107020800AE
:100800007F387E0012089D7F0E7E0012089D7F01BA
:100810007E0012089D7F807E0012089D7F4C7E0026
:100820001208A97F437E001208A97F447E001208A7
:10083000A97FC07E0012089D7F507E001208A97F0C
:10084000527E001208A97F4F7E001208A97F4A7EBF
:10085000001208A97F457E001208A97F437E00127E
:0B08600008A97F547E001208A980AA9E
:0C089D008F90C2A1C2A012086BC2A22260
:0C08A9008F90C2A1D2A012086BC2A22244
:06086B00D2A27F0A7E000C
:10087100E4FDFCC3ED9FEC9E5015E4FBFA0BBB00BD
:0F088100010AEB64714A70F50DBD00010C80E4B3
:010890002245
:00000001FF
